:03000000027AC0C1
:0C7AC000787FE4F6D8FD758123027B0777
:1091F40025730044746D66446174613A20307825A7
:10920400623032580D0A005573724B65792025621D
:04921400640D0A00DB
:0947CC0042139D000041139F00FF
:104C37007F647E00129080C2AF30C0FD1271D31224
:104C470087F31286F31294FB128FB81290097FE84C
:104C57007E03129080129218D2AF7F647E0012906A
:104C670080C20012687B1275F37F647E0012908009
:104C77001293331294E1128F66900CABE0600C7BB9
:104C8700017A0C79B4120E7E12955F900CB3E06036
:104C97002B9011277401F0A3740EF0A374B4F07B6A
:104CA700FF7A9179F4122E267B017A0E79B4900C53
:104CB700B0E0FCA3E0FD1269AA129578125A989009
:104CC7001389E0FF60427BFF7A9179F7901127F013
:104CD700122E2690123AE0FF901389E0B5070C9048
:104CE7001239E0FDD200E4FF1293DA90123BE0FFA5
:104CF700901389E0B5070C901239E0FDD2007F01CF
:104D07001293DAE4901389F0201B03024E2DC21B85
:104D1700128968126ACB90139FEFF0F4601E7F111F
:104D27001287497BFF7A92790B90139FE0901127A6
:104D3700F0122E2690139FE0FF125C1B12673912A8
:104D47008CDD12347D128CAB90139DE475F001124B
:104D57000ABDFED3E5F094E8EE94035003024DFD3F
:104D6700E490139DF0A3F0B2811295149011CFE057
:104D77007002A3E06025901267E07002A3E0701B49
:104D8700901262E07002A3E070119011CF74FFF5EA
:104D9700F0120ABD45F07003128F66901243E0B41B
:104DA70014211289F4901262E07002A3E06014905B
:104DB700126274FFF5F0120ABD45F0700612952DC8
:104DC700128F66901222E004F0E075F00A84E5F095
:104DD700F09011CFE07002A3E0701B901243E0B493
:104DE7000114901241E0B4FF0DA3E0B4FF08901244
:104DF70022E0FF127734D39012C0E094009012BFE4
:104E0700E094004021901243E0B4041A9012C0E0ED
:104E170024FFF09012BFE034FFF0E07002A3E070CF
:104E2700057F63121CC8300B09901243E0B40102DE
:104E3700C20B201103024C8012136230120E7F1135
:104E47001287497B017A13796012849D1294E102DB
:024E57004C808D
:108C100055415254315F636F6E666967204F4B2137
:108C20000D0A0055415254335F636F6E66696720C9
:108C30004F4B210D0A0052657365744B6579546979
:058C40006D650D0A0046
:1047D50041138900411385004113860041138A1F47
:1047E50041138D1F42138B0000411387004113882D
:0647F5000042138E0000DB
:109080007C007D07120A56E4FDC3ED9FEC9E50154F
:10909000E4FBFA0BBB00010AEB646E4A70F50DBDF0
:0590A00000010C80E45A
:0190A50022A8
:0E97F20090114CEFF012905990114CE0FF22B4
:0B90A600901124EBF0A3EAF0A3E9F026
:1090B100E4FF901124E0FBA3E475F001120AD3A9A7
:0A90C100F0FA1209DC60030F80E8EA
:0190CB002282
:10960500E4FF1209DC600E0FB4D7011F740129F9BC
:05961500E43AFA80EDCB
:01961A00222D
:0B6FEF009010D5EBF0A3EAF0A3E9F04E
:106FFA00E49010DBF0A3F0A3F0A3F09010D5E0FB2F
:10700A00A3E0FAA3E0F99010DBE0FEA3E0F5828E9C
:10701A00831209F5FF70030270E29010D8E0FBA317
:10702A00E0FAA3E0F91209DC6F60030270CE901057
:10703A00DDF0A3F09010D8E0FBA3E0FAA3E0F9900A
:10704A0010DDE0FEA3E0F5828E831209F56051900F
:10705A0010DDA3E0FF9010DCE02FFF9010DBE03E94
:10706A00FE9010D5E0FBA3E0FAA3E0F98F828E83AD
:10707A001209F5FF9010D8E0FBA3E0FAA3E0F9901B
:10708A0010DDE0FCA3E0F5828C831209F5B5071048
:10709A009010DEE004F0709C9010DDE004F0809423
:1070AA009010D8E0FBA3E0FAA3E0F99010DDE0FE2F
:1070BA00A3E0F5828E831209F570099010DBE0FED9
:1070CA00A3E0FF229010DCE004F060030270059058
:0C70DA0010DBE004F00270057EFF7FFF79
:0170E6002287
:108EB900901124EBF0A3EAF0A3E9F0ED1DAE0470E4
:108EC900011C4E6016901124E0FBA3E475F0011219
:0C8ED9000AD3A9F0FAE4120A2280E02279
:1089B0009010D0EBF0A3EAF0A3E9F09010D674FF8A
:1089C000F5F0120AD345F0602A9010D3E0FBA3E43F
:1089D00075F001120AD3A9F0FA1209DCFF9010D049
:1089E000E0FBA3E475F001120AD3A9F0FAEF120A32
:0489F0002280C822F7
:0B86990090109CEBF0A3EAF0A3E9F0C6
:1086A400E4FFFE90109FE0FBA3E0FAA3E0F91209B7
:1086B400DC602D90109FA3E475F001120AD3A9F099
:1086C400FA1209DCFD90109CE0FBA3E475F00112A2
:1086D4000AD3A9F0FAED120A220FBF00010E80C3DB
:0F86E40090109CE0FBA3E0FAA3E0F9E4020A2265
:108E5D009010C5EBF0A3EAF0A3E9F0ED1DAE0470A0
:108E6D00011C4E60179010C5E0FBA3E475F00112D4
:0E8E7D000AD3A9F0FA1209DC60E1C322D32265
:1071D30090107D74FFF0E490107CF07B017A1079BD
:1071E3007C7F011243267B017A10797C7F02124354
:1071F300267B017A10797C7F0312432690107D74DD
:1072030060F07B017A10797CE4FF12432690107DB5
:107213007401F0FB7A10797C7F0412432690107D71
:107223007430F07B017A10797C7F0512432690102D
:107233007D74F3F07B017A10797C7F0612432690EC
:10724300107D7448F07B017A10797C7F0712432606
:1072530090107C7403F0A37413F07B017A10797C93
:10726300E4FF12432690107D741AF07B017A1079A3
:107273007C7F0412432690107D740CF07B017A10FE
:10728300797C7F0512432690107D7437F07B017A59
:1072930010797C7F0712432690107D7404F07B01E4
:1072A3007A10797C7F06124326C2F8C2C1D2FAD281
:0772B300FBD2F9C2C3C28443
:0172BA0022B1
:1086F30090107C7440F0A37402F0A3120D0C0001DF
:10870300C2009010837401F0E4A3F0A304F0A3F07B
:10871300E4A3F07B017A10797C7F011221467BFF71
:108723007A8C7910122E269010877402F07B017ACE
:1087330010797C7F031221467F581290317BFF7A98
:068743008C7923022E26B2
:1087F300E490107CF0A3F0A304F0E4A3F0A3F0A3AF
:108803007496F0A37488F0A37401F0FB7A10797C5A
:10881300E4FF124E5990108174FEF0A374F2F07BC2
:10882300017A10797C7F01124E5990108174FCF00B
:0F883300A374B5F07B017A10797C7F04024E5953
:1094FB0090107E7401F0E490107DF090107CF07B66
:09950B00017A10797CFF0286361A
:106ACB00901385E0146036146053146064147003E3
:106ADB00026BB6147003026BCA24056003026BE6EB
:106AEB0075A0F0E5A054F064F07003026BE6901310
:106AFB00867414F09013857401F0026BE6E5A054D4
:106B0B00F0FFBFF004E4026BE2901386E014F06038
:106B1B0003026BE69013857402F0026BE6E5A0446A
:106B2B000F90107CF0E0F5A09013857403F0026BCE
:106B3B00E690107CE5A0F075A0F09013857404F03E
:106B4B0090107CE0120D496BB3776BB07B6BAD7D16
:106B5B006BAA7E6BA7B76BA4BB6BA1BD6B9EBE6B09
:106B6B009BD76B98DB6B95DD6B92DE6B8FE76B8C3A
:106B7B00EB6B89ED6B86EE00006BE67F04227F08E2
:106B8B00227F0B227F0F227F03227F07227F00228F
:106B9B007F0E227F02227F06227F0A227F0D227F19
:106BAB0001227F05227F09227F0C22E5A054F0FFF2
:106BBB00BFF0289013857405F0A37414F0801CE5C6
:106BCB00A054F064F060089013857404F0800C906E
:0D6BDB001386E014F07004901385F07FFF26
:016BE800228A
:10673900901387E01460400460030267C4A2CDE4AB
:106749003325E0FFA2CCE4334F25E0FFA2C0E433B8
:106759004F25E0FFA285E4334F25E0FFA286E4330D
:106769004FFF90138AE06F6052901388741EF09067
:1067790013877401F08044A2CDE43325E0FFA2CC55
:10678900E4334F25E0FFA2C0E4334F25E0FFA285A3
:10679900E4334F25E0FFA286E4334FFF90138AE0EC
:1067A900B50707E4901387F08011901388E014F07F
:1067B9007009901387F090138AEFF090138AE0FF25
:1067C90090138DE0FE6F6079EE5401FEEF54016E77
:1067D900601C90138AE020E015901239E0FDC20098
:1067E900E4FF1293DA9011CFE4F0A37405F090134B
:1067F9008DE05402FF90138AE0FE54026F6019EE97
:1068090020E115901239E0FDC2007F011293DA9060
:1068190011CFE4F0A37405F090138DE05404FF90B8
:10682900138AE054046F6011A37427F0A37410F065
:106839007BFF7A8C7936122E2690138AE090138D7D
:10684900F090138DE020E22990138BE07002A3E011
:10685900601F90138B74FFF5F0120ABD45F070119B
:10686900D20012687B1297E29011CFE4F0A374056D
:01687900F02E
:01687A0022FB
:1093DA00748E2FF582E43413F583EDF0EF7004D226
:1093EA00C38006EFB40102D284A20092010295461C
:1095140090138EE0600614F07002C2C390138FE0C3
:09952400600614F07002C28422FA
:1000A600000000384492BAFE828244380000000004
:1000B60000000038448282FEBA92443800000000F4
:1000C6000000003854AAAAAAC692443800000000CC
:1000D600000000384482AAF68A82443800000000F4
:1000E6000000000000000000000303000000000004
:1000F6000003030F0F3F3FFFFFFFFF00000000005C
:1001060000000000422418182442000000000000ED
:100116000000003844BAC6AAAAAA54380000000053
:1001260000003C42A599FF99A5423C000000000052
:1001360000000000000000000000000000000000B9
:100146000000183C3C3C1818180018180000000065
:10015600006363632200000000000000000000004E
:1001660000000036367F3636367F36360000000011
:100176000C0C3E6361603E030343633E0C0C0000BF
:1001860000000000006163060C18336300000000E5
:100196000000001C36361C3B6E66663B0000000005
:1001A6000030303060000000000000000000000059
:1001B60000000C18183030303018180C0000000001
:1001C6000000180C0C060606060C0C1800000000B1
:1001D6000000000042663CFF3C6642000000000052
:1001E60000000000181818FF18181800000000007A
:1001F6000000000000000000000018181830000081
:1002060000000000000000FF0000000000000000E9
:1002160000000000000000000000181800000000A8
:1002260000000103070E1C3870E0C08000000000CB
:1002360000003E6363636B6B6363633E0000000014
:1002460000000C1C3C0C0C0C0C0C0C3F00000000BD
:1002560000003E6303060C183061637F0000000057
:1002660000003E6303031E030303633E0000000019
:100276000000060E1E3666667F06060F00000000AA
:1002860000007F6060607E030363733E0000000031
:1002960000001C3060607E636363633E0000000004
:1002A60000007F630306060C0C18181800000000F7
:1002B60000003E6363633E636363633E00000000C9
:1002C60000003E636363633F0303063C00000000D7
:1002D60000000000001818000000181800000000B8
:1002E6000000000000181800000018181830000060
:1002F600000000060C18306030180C0600000000E4
:100306000000000000007E00007E000000000000EB
:100316000000006030180C060C1830600000000069
:1003260000003E6363060C0C0C000C0C0000000081
:1003360000003E63636F6B6B6E60603E0000000002
:100346000000081C366363637F636363000000007C
:1003560000007E3333333E333333337E00000000F8
:1003660000001E33616060606061331E00000000A3
:1003760000007C36333333333333367C00000000E1
:1003860000007F3331343C343031337F00000000CD
:1003960000007F3331343C343030307800000000C8
:1003A60000001E336160606F6363371D000000004C
:1003B6000000636363637F6363636363000000003D
:1003C60000003C18181818181818183C00000000EF
:1003D60000000F06060606060666663C00000000DC
:1003E6000000733336363C36363333730000000074
:1003F60000007830303030303031337F000000007C
:10040600000063777F6B63636363636300000000D0
:1004160000006363737B7F6F6763636300000000A4
:1004260000001C36636363636363361C00000000D0
:1004360000007E3333333E30303030780000000029
:1004460000003E6363636363636B6F3E06070000F1
:1004560000007E3333333E363633337300000000FC
:1004660000003E6363301C060363633E0000000029
:100476000000FFDB991818181818183C0000000037
:1004860000006363636363636363633E00000000AD
:10049600000063636363636363361C080000000047
:1004A600000063636363636B6B7F36360000000096
:1004B6000000C3C3663C18183C66C3C300000000B6
:1004C6000000C3C3C3663C181818183C000000009F
:1004D60000007F6343060C183061637F0000000054
:1004E60000003C30303030303030303C000000000E
:1004F600000080C0E070381C0E07030100000000F9
:1005060000003C0C0C0C0C0C0C0C0C3C000000000D
:10051600081C366300000000000000000000000018
:10052600000000000000000000000000FF000000C6
:1005360018180C0000000000000000000000000079
:1005460000000000003C46063E66663B00000000D8
:1005560000007030303C36333333336E0000000019
:1005660000000000003E63606060633E0000000023
:1005760000000E06061E36666666663B0000000034
:1005860000000000003E63637E60633E00000000E2
:1005960000001C3632307C303030307800000000ED
:1005A60000000000003B666666663E06663C00008C
:1005B6000000703030363B333333337300000000B5
:1005C60000000C0C001C0C0C0C0C0C1E0000000097
:1005D60000000606000E060606060666663C0000D5
:1005E60000007030303333363C3633730000000081
:1005F60000001C0C0C0C0C0C0C0C0C1E000000005B
:1006060000000000006E7F6B6B6B6B6B00000000E0
:1006160000000000006E3333333333330000000034
:1006260000000000003E63636363633E0000000059
:1006360000000000006E333333333E303078000064
:1006460000000000003B666666663E06060F000078
:1006560000000000006E3B333030307800000000B0
:1006660000000000003E63380E03633E00000000F9
:1006760000000818187E181818181B0E0000000035
:1006860000000000006666666666663B00000000C5
:100696000000000000636336361C1C0800000000E2
:1006A60000000000006363636B6B7F360000000090
:1006B600000000000063361C1C1C366300000000AE
:1006C600000000000063636363633F03063C0000B1
:1006D60000000000007F660C1830637F00000000F9
:1006E60000000E18181870181818180E00000000D0
:1006F6000000181818181800181818181800000004
:100706000000701818180E1818181870000000004D
:1007160000003B6E0000000000000000000000002A
:100726000070D8D870000000000000000000000033
:100736000000C6C66676DCCCC6C600000000000017
:100746000000F80C0C0C0C0C0CFE00000000000065
:1007560000007018181818386C66000000000000B9
:100766000000FE0C0C0C0C0C0C0C00000000000031
:1007760000007C060606666666660000000000004D
:1007860000001818181818181818000000000000A3
:1007960000007818303030303030000000000000A3
:1007A6000000FCC6C6C6C6C6C6C6000000000000DD
:1007B6000000CCC6C6C6C6C6C67C00000000000047
:1007C60000001818181800000000000000000000C3
:1007D60000007018181818181818180000000000E3
:1007E60000007C0606060606067C000000000000E7
:1007F600C0C0FC060606060C181800000000000023
:100806000000FC66C6C6C6C6C6FE000000000000A4
:100816000000DC7666C6C6C6C6DC00000000000026
:1008260000001818181818181818181818000000BA
:100836000000380C0C0C0C0C0C3C000000000000F6
:1008460000007C66C6C6C6C6CC7800000000000064
:1008560000006666663636361C7000000000000032
:100866000000F84CCCCCCC6C0C0C0C0C0E00000030
:100876000000FC46C6C6E606867C000000000000B6
:1008860000666C38181818181818000000000000C8
:100896000000EE666634180C06FE0000000000003C
:1008A6000000FC060666646C6E6060600000000076
:1008B6000000F80C0C0C0C0C0C0C000000000000E6
:1008C6000000D6D6D6D6D6F6E67C0000000000009C
:1008D6000000FC6666666666E6E60000000000004C
:1047FB00410CA300410CA000C11742089E000041D0
:07480B000CA1FF410CA2FF0C
:10941A007590FFC2C4D2CBD2CA0000E59030E703F0
:0C942A00D38001C39202C2CA0000A2025B
:019436002213
:1095910012941A40FBC2C4C2CBC2CA00008F900011
:0895A10000D2CA0000C2CA2278
:0C931100E0FBA3E0FAA3E0F91209DCFF86
:10931D0012941A40FBD2C4C2CBC2CA8F900000D2A5
:06932D00CA0000C2CA22C2
:10921800C2CA7F30129591000012959100007F0C10
:1092280012959100007F0112959100007F0612951A
:04923800910000227F
:1094AB007F0112959100007B017A0879A07D007CE9
:0B94BB0004128EB97DFF7FFF02981E97
:0B809300901124EBF0A3EAF0A3E9F049
:10809E002400F9EA3402FA901128EBF0A3EAF0A3D7
:1080AE00E9F0E4901127F07F36129591901127E0B8
:1080BE004480FF1295917F801295917F3012959199
:1080CE00301303125A98E4FE90112412931190115A
:1080DE0025E475F001120ABD0EEEB410EB7E109081
:1080EE001128129311901129E475F001120ABD0E98
:1080FE00EEB420EB901127E004F0E0C3942040A7EB
:01810E00224E
:107B4C00AE077F36129591EDD394014006ED24FEDD
:107B5C00FF8002AF05EFC454F0240F4480FF129550
:107B6C0091EEC313FFEDD3940140047C0880027C9A
:107B7C0000EF2C4480FF1295917F30129591EE30DE
:107B8C00E02175F000EDA4248FF582E5F03409F5C1
:107B9C00832DF583E5822EF582E43583F583E0FFB2
:107BAC0012931D3000047FFF801E75F000EDA4249D
:107BBC0090F582E5F03409F5832DF583E5822EF5F9
:0B7BCC0082E43583F583E0FF02931D87
:109437001209DCFF6015640A6011EFD394804002C3
:0D944700D322740129F9E43AFA80E5C3222A
:10977200900CA3E004F0E05403F0E4900CA0F0227B
:0B635D00901124EBF0A3EAF0A3E9F09C
:106368001294379216901124A3E0FAA3E04A70031E
:106378000264A9901124E0FBA3E0FAA3E0F9120952
:10638800DCFF70030264A9640A70030264A9901117
:1063980028EFF0900CA0E004F0E0D3941040031232
:1063A800977290112974FFF0A37403F0A37426F078
:1063B800901128E0FFC39420406EEFD394805010D2
:1063C800EF75F010A42436F974FF35F0FAA3804F66
:1063D800901125E475F001120ABD901128E07F00A4
:1063E800FE901124E0FBA3E0FAA3E0F91209DC2FE8
:1063F800FFE43EFEC3EF9490EE94D7402BD3EF9486
:10640800ABEE94D75022EFC4F8540FC868FFEEC41F
:1064180054F048FE74362FF9748E3EFA90112974A0
:10642800FFF0A3EAF0A3E9F0900CA0E06007149055
:106438001127F0800AE4901127F0900CA004F030A6
:10644800160A901127E0FFC3740F9FF0E4FF901124
:1064580029E0FBA3E0FAA3E0F98F82758300120913
:10646800F5FE900CA3E0C454F02F75F010A424A0FE
:10647800F582E5F03408F583C083C082901127E0E7
:10648800D082D0832582F582E43583F583EEF00F40
:10649800EFB410BA901125E475F001120ABD026339
:0164A8007B78
:0164A90022D0
:08827500901089EFF0A3EDF079
:10827D00EB75F010A424A6F9740035F0FA90108D6A
:10828D0074FFF0A3EAF0A3E9F0E4FF90108DE0FB9A
:10829D00A3E0FAA3E0F98F827583001209F5FE9031
:1082AD00108CE05EFE901089E0C454F02F75F01034
:1082BD00A424A0F582E5F03408F583C083C0829034
:1082CD00108AE0D082D0832582F582E43583F58350
:0782DD00EEF00FEFB410B446
:0182E4002277
:10961B00900CA3EFF0900CA0EDF012635D7B017A40
:06962B000879A002809303
:10973D0090108C74FFF01282757B017A0879A0026B
:02974D00809307
:0A8432009013A0EFF0A3EDF0AC03EF
:10843C00E4A3F0EC75F00584FCD3940540027C05B4
:10844C007E01EEC39C500F9013A2E01313543FF027
:10845C0044C0F00E80EC9013A0E0FFA3E0FDECD341
:10846C00940040047EFF80027E0090108CEEF07B26
:10847C00041282759013A0E0FFA3E004FDA3E0902A
:10848C00108CF07B051282757B017A0879A0028032
:01849C00934C
:09981E00900CA1EDF0A3EFF02283
:108CAB00900CA1E0FFF46029A3E0FDF46023900891
:108CBB009EE475F001120ABDABF0FABA0113BB2C9E
:108CCB0010E490089EF0A3F0A2179200127B4CB216
:028CDB0017225E
:103120004F4B002B4350494E3A204E4F5420494EAE
:10313000534552544544004552524F52002B435080
:10314000494E3A205245414459002B4350494E3A8A
:10315000204E4F542052454144590025642C25648B
:103160000061742B6370696E3F2072657475726EB6
:10317000202562640D0A002B435245473A20002562
:1031800062642C256264004174436D6443625F6332
:103190007265673A202562642C2562640D0A00611D
:1031A000742B637265673F2072657475726E20259B
:1031B00062640D0A002B4353513A20004174436D61
:1031C0006443625F6373713A202562642C256264F4
:1031D0000D0A0061742B6373713F20726574757200
:1031E0006E202562640D0A0041540D0A0041542BE3
:1031F0004350494E3F0D0A0041542B434F50533D1D
:10320000300D0A0041542B514346473D226E7773DF
:1032100063616E6D6F6465222C300D0A0041542B82
:10322000435245473F0D0A0041542B4346554E3DFE
:10323000310D0A0041542B515552434346473D221C
:10324000757263706F7274222C22756172743122F0
:103250000D0A0041542B43545A553D310D0A00418B
:10326000542B434C49503D310D0A0041542B4347E8
:103270004D520D0A0041542B51544F4E4544455474
:103280003D310D0A0041542B434C564C3D340D0A40
:103290000041542B4353510D0A0041542B43504FCE
:1032A000460D0A0047534D5F5265706F7765720D8A
:1032B0000A0047534D5F496E69743A310D0A004761
:1032C000534D5F4765744373710D0A0041542B439E
:1032D0004C564C3D2562640D0A0047534D5F5365C3
:1032E00074566F6C756D2028256264293A20257309
:1032F0000D0A00415444003B0D0A0041542B434841
:1033000055500D0A0047534D5F496E69743A320DAE
:103310000A0047534D5F496E69743A330D0A0047FE
:10332000534D5F496E69743A340D0A0047534D5F3F
:103330004174436D643A256264202D202562640D3A
:103340000A00415420636D64206578656375746577
:103350002031306564204661696C203A2025626422
:10336000205B25735D20210D0A0043616C6C4F7555
:103370007454696D653A2025640D0A0041542B434D
:103380004C43430D0A004154410D0A004E4F524D2B
:10339000414C20504F57455220444F574E00554EF8
:1033A0004445522D564F4C5441474520504F5745A8
:1033B0005220444F574E004E4F204449414C544FE9
:1033C0004E45004E4F20434152524945520052490A
:1033D0004E47002B434C43433A20002B44544D4668
:1033E0003A20002B525844544D463A20002B434F6C
:1033F0004C503A002B51544F4E454445543A002509
:1034000062642C2562642C25626400434C43433A79
:10341000202562640D0A000D0A2D2D2D2D50614FBF
:1034200070656E2D2D2D2D0D0A002562640044540B
:103430004D463A202562640D0A00FF3123FF3137E3
:10344000FF313DFF314AFF3137FF3177FF3137FF21
:1034500031B5FF338CFF339EFF33B7FF33C3FF33E8
:10346000CEFF33D3FF33DBFF33E3FF33EDFF33F422
:0D34700041542B5654533D2230220D0A00CA
:10481200411264FF41126BFFC10BC10CC10A41126C
:10482200490041124A0041124B0041124C00411210
:104832004D004112BBFF4112BC00604E126DFF31B0
:10484200E8FF8DA1FF31EDFF5D98FF31F8FF8DA1EB
:10485200FF3204FF8DA1FF321DFF6084FF3228FF6B
:104862008DA1FF3234FF8DA1FF3253FF8DA1FF32A4
:104872005FFF8DA1FF326BFF8DA1FF3275FF8DA10E
:10488200FF3285FF8DA1FF3291FF61F44212670072
:0F489200004212650000421262000041126C00E9
:108DA1009010D874FFF0A37431F0A37420F0126F07
:108DB100EFEFF47002EEF460037F0422901249E0B9
:0E8DC10004F0C3940A4005E4F07FFF227F0017
:018DCF002281
:105D9800E490107CF074FFA3F0A3F0E4A3F0A3F068
:105DA800A3F0A3EBF0A3EAF0A3E9F0E4901081F0EC
:105DB800901081E0FFC394044003025E7DEF75F00C
:105DC80003A4243AF582E43434F583E493F97401A6
:105DD80093FA7402939010D8C9F0A3EAF0A3E9F0FB
:105DE800901082E0FBA3E0FAA3E0F9126FEFEFF462
:105DF8007002EEF46076901081E0FF7E0090107DD6
:105E0800EEF0A3EFF06401706C90107DE0FEA3E06B
:105E180090343A75F003120D3DEE75F003A4258316
:105E2800F583E493FB740193FA740293F91290A634
:105E38007E00901082E0FBA3E0FAA3E02FF9EE3A8F
:105E4800FA9010D874FFF0A37431F0A3745BF0A338
:105E58007401F0A37410F0A3747FF0A37401F0A38D
:105E68007410F0A37480F0123B598009901081E0FF
:105E780004F0025DB890107DE0FEA3E0FFEE7073C1
:105E8800EF14604014606014601124037065901072
:105E98007C74FFF090126B14F0805890124AE0C3A3
:105EA800940A400D90107C74FFF0E490124AF08040
:105EB8000BE490107CF090124AE004F090126B749E
:105EC800FDF0802F90124AE0C3940A400D90107C98
:105ED80074FFF0E490124AF08019E490107CF0907E
:105EE800124AE004F0800C90126B74FCF090107C65
:105EF8007404F07BFF7A31796190107CE09011276F
:095F0800F0122E2690107CE0FF3F
:015F1100226D
:10608400E490107CF074FFA3F0A3F0E4A3F0A3F079
:10609400A3F0A3EBF0A3EAF0A3E9F0E4901081F0FD
:1060A400901081E0FFC394024003026191EF75F008
:1060B40003A42446F582E43434F583E493F97401AB
:1060C40093FA7402939010D8C9F0A3EAF0A3E9F00C
:1060D400901082E0FBA3E0FAA3E0F9126FEFEFF473
:1060E4007002EEF47003026188901083EE8FF01258
:1060F4000ABD901081E0FF7E0090107DEEF0A3EFCA
:10610400F06401600302619190107DE0FEA3E090D1
:10611400344675F003120D3DEE75F003A42583F5A6
:1061240083E493FB740193FA740293F91290A67EAC
:1061340000901082E0FBA3E0FAA3E02FF9EE3AFA14
:106144009010D874FFF0A37431F0A3747FF0A3749B
:1061540001F0A37410F0A3747FF0A37401F0A3748E
:1061640010F0A37480F0123B597BFF7A3179879049
:10617400107FE0901127F0901080E0901128F01229
:106184002E268009901081E004F00260A490107D16
:10619400E0FEA3E0FFEE7041EF14600E04703A904D
:1061A400124BE0C3941440268017901080E0B40191
:1061B4000790107C7404800E90124BE0C39414403A
:1061C4000D90107C74FFF0E490124BF0800BE4907F
:1061D400107CF090124BE004F07BFF7A31799F90B1
:0F61E400107CE0901127F0122E2690107CE0FF27
:0161F3002289
:1061F400E490107CF074FFA3F0A3F0E4A3F0A3F008
:10620400A3F0A3EBF0A3EAF0A3E9F0C20AE4901030
:1062140081F0901081E0FFC394024003026303EF16
:1062240075F003A4244CF582E43434F583E493F943
:10623400740193FA7402939010D8C9F0A3EAF0A3FE
:10624400E9F0901082E0FBA3E0FAA3E0F9126FEF0B
:10625400EFF47002EEF470030262FA901083EE8F92
:10626400F0120ABD901081E0FF7E0090107DEEF0E8
:10627400A3EFF06401600302630390107DE0FEA3CA
:10628400E090344C75F003120D3DEE75F003A42537
:1062940083F583E493FB740193FA740293F91290E7
:1062A400A67E00901082E0FBA3E0FAA3E02FF9EEB3
:1062B4003AFA9010D874FFF0A37431F0A3747FF00D
:1062C400A37401F0A37410F0A3747FF0A37401F01D
:1062D400A37410F0A37480F0123B597BFF7A3179D8
:1062E400BC90107FE0901127F0901080E09011286E
:1062F400F0122E268009901081E004F002621690BC
:10630400107DE0FEA3E0FFEE7038EF14602404700B
:106314003190124CE0B40A0D90107C74FFF0E490BC
:10632400124CF0801DE490107CF090124CE004F0CC
:10633400801090107FE090126BF0D20B90107C7460
:1063440004F07BFF7A3179D390107CE0901127F030
:08635400122E2690107CE0FFE0
:01635C00221E
:108DD0009010D874FFF0A37431F0A37420F0126FD8
:108DE000EFEFF47002EEF460037F042290124DE086
:0E8DF00004F0C3940A4005E4F07FFF227F00E8
:018DFE002252
:10923C007BFF7A32799A128C78901264740AF090CF
:10924C0012697407F0A374D0F0D20B7BFF7A3279D9
:04925C00A4022E2614
:10933300D2F89012697403F0A374E8F09012647485
:1093430001F090126B74FFF0D20BFB7A3279B20208
:029353002E26C4
:108F3C00901264E0640760219012697403F0A374CA
:108F4C00E8F09012647404F09012BB740CF0D20A26
:0A8F5C007BFF7A3279BF122E262225
:107F0D00901088EFF09012697403F0A374E8F0906C
:107F1D0012647404F09012BB740BF090112774FF6F
:107F2D00F0A37432F0A374CCF0A3EFF07B017A12BE
:107F3D00794E122E209012BBE0FF75F006A4246D31
:107F4D00F582E43412F5837401F0A37412F0A37476
:107F5D004EF0901088E0901127F0EF75F006A424F4
:107F6D006DF582E43412F583E0F9A3E0FAA3E09015
:107F7D001128C9F0A3EAF0A3E9F07BFF7A3279DA90
:037F8D00022E269B
:10856F00901096EBF0A3EAF0A3E9F0901264E0FF0D
:10857F0064056008EF64096003300A467BFF7A32B6
:10858F0079F3128C78901096E0FBA3E0FAA3E0F950
:10859F00128C787BFF7A3279F7128C78901236E052
:1085AF00FF901267E4F0A3EFF0A37403F0A374E855
:1085BF00F09012647406F0C20CE490126CF0D2804A
:0485CF00D322C322CE
:10952D00D2807BFF7A3279FB128C789012647405AD
:09953D00F0E4901262F0A3F022A8
:10347D00901264E0B40B0040030237A9903490F829
:10348D002828730234D80234EC0235180235440270
:10349D0035BD02364702365B0236E6023744023747
:1034AD005D0234B190126974FFF5F0120ABD45F05A
:1034BD0060030237A9C2F8901269743AF0A37498A8
:1034CD00F0E4901264F09012BCF02290126974FF37
:1034DD00F5F0120ABD45F060030237A9029333904F
:1034ED00126974FFF5F0120ABD45F060030237A9A9
:1034FD00D2C19012697404F0A374B0F09012647488
:10350D0002F07BFF7A33790502361590126974FF4C
:10351D00F5F0120ABD45F060030237A9C2C1901241
:10352D00697402F0A37458F09012647403F07BFF79
:10353D007A33791202361590126974FFF5F0120A7A
:10354D00BD45F060030237A99012647404F0E49055
:10355D0012BBF0A3F090112774FFF0A37432F0A307
:10356D0074CCF090123CE090112AF07B017A127924
:10357D004E122E209012AF7401F0A37412F0A374AA
:10358D004EF09012BBE075F006A4246DF582E43484
:10359D0012F583E0FBA3E0FAA3E0F9128C78901208
:1035AD00697407F0A374D0F07BFF7A33791F8058CC
:1035BD0090126974FFF5F0120ABD45F060030237F1
:1035CD00A99012BCE004F0C394159012BBE0503BDF
:1035DD0075F006A4246DF582E43412F583E0FBA3A7
:1035ED00E0FAA3E0F9128C789012697407F0A374D5
:1035FD00D0F07BFF7A33792C9012BBE0901127F03D
:10360D009012BCE0901128F0022E26901127F07533
:10361D00F006A4246DF582E43412F583E0F9A3E0FD
:10362D00FAA3E0901128C9F0A3EAF0A3E9F07BFF1B
:10363D007A337942122E2602923C90126974FFF56C
:10364D00F0120ABD45F060030237A9028F3C9012BB
:10365D006974FFF5F0120ABD45F060030237A990B9
:10366D0012697403F0A374E8F07BFF7A33796A90E2
:10367D001267E0FFA3E0901127CFF0A3EFF0122E19
:10368D002690126774FFF5F0120ABD45F0704112D5
:10369D00952DE4901262F0A3F0901244E075F00CB9
:1036AD00A42409F9741235F0FA7B011290A6EFD318
:1036BD00940040109012647409F0901267E4F0A326
:1036CD007402F0221297A29011CFE4F0A37405F0CA
:1036DD007BFF7A33797C028C7890126974FFF5F058
:1036ED00120ABD45F060030237A99012697403F008
:1036FD00A374E8F090126574FFF5F0120ABD45F061
:10370D0060030237A97BFF7A337986128C78901289
:10371D00437414F09012647408F0C280901233E078
:10372D00FFA3E0901262CFF0A3EFF090123CE0FF08
:10373D00901221F0027F0D90126974FFF5F0120ABC
:10374D00BD45F070579012697403F0A374E8F02230
:10375D0090126974FFF5F0120ABD45F0703E90129B
:10376D00697403F0A374E8F090126774FFF5F0121A
:10377D000ABD45F07026901244E0C394025017E044
:10378D0004F07B017A1179D1E0FD1270E750E790DA
:0D379D0012437413F02212952D128F662234
:1029B70074FF90107FF0A3F0E4A3F0A3F0A3EBF073
:1029C700A3EAF0A3E9F0E4901081F0A3F09010815E
:1029D700E0FEA3E0FFC3940AEE64809480505F900A
:1029E700345275F003EF120D3DEE75F003A4258305
:1029F700F583E493F9740193FA7402939010D8C99C
:102A0700F0A3EAF0A3E9F0901083E0FBA3E0FAA3B8
:102A1700E0F9126FEFEFF47002EEF460119010819D
:102A2700E0FFA3E090107FCFF0A3EFF080109010AD
:102A370082E004F07097901081E004F0808F90108E
:102A47007FE0FEA3E0FFEE6003022DBAEFB40A00B9
:102A57004003022DBA902A63F8282873022A8102BC
:102A67002A81022A81022AA2022ADD022AFF022CD7
:102A770038022C7A022DBA022D1C901264E0FF64F2
:102A8700066009EF64086004EFB4090C1297C2905E
:102A970011CFE4F0A37405F002923C901264E0B405
:102AA7000626901244E075F00CA42409F974123537
:102AB700F0FA7B011290A6EFD39400400B901264BA
:102AC7007409F09012678026901264E0640970031D
:102AD700022DBA022C32901264E064077003022DB3
:102AE700BA7407F0901235E0B4010A901265E4F069
:102AF700A37402F02202952D903461E493F97401D6
:102B070093FA7402939010D8C9F0A3EAF0A3E9F0FE
:102B1700901083E0FBA3E0FAA3E0F9126FEF9010A7
:102B270081EEF0A3EFF0901081E0F47003A3E0F4DE
:102B37007003022DBA903461E493FB740193FA7425
:102B47000293F91290A6901082E02FFF901081E077
:102B570034009010848FF0120ABD9010D874FFF0E3
:102B6700A37433F0A374FFF0A37401F0A37410F0FF
:102B7700A37481F0A37401F0A37410F0A37486F01A
:102B8700A37401F0A37410F0A37487F0901083E08E
:102B9700FBA3E0FAA3E0F9123B597BFF7A34790BE8
:102BA700901087E0901127F0122E26901087E07082
:102BB700319012437414F09012647408F0E4901288
:102BC70067F0A3F0901233E0FFA3E0901262CFF01A
:102BD700A3EFF090123CE0FF901221F0127F0DC29C
:102BE7008022901087E06403702B200C0FD20C908A
:102BF7001236E0FF901267E4F0A3EFF090126CE05A
:102C070004F064056003022DBA7BFF7A347917124A
:102C17002E26C28022901087E064066003022DBA38
:102C2700901264E064097003022DBA12952D028F89
:102C370066903464E493F9740193FA7402939010E4
:102C4700D8C9F0A3EAF0A3E9F0901083E0FBA3E072
:102C5700FAA3E0F9126FEF901081EEF0A3EFF09076
:102C67001081E0F47003A3E0F47003022DBA9034EE
:102C7700648040903467E493F9740193FA74029383
:102C87009010D8C9F0A3EAF0A3E9F0901083E0FB15
:102C9700A3E0FAA3E0F9126FEF901081EEF0A3EF33
:102CA700F0901081E0F47003A3E0F47003022DBAF2
:102CB700903467E493FB740193FA740293F91290CA
:102CC700A6901082E02FFF901081E03400901084CE
:102CD7008FF0120ABD9010D874FFF0A37434F0A3DC
:102CE700742AF0A37401F0A37410F0A37487F09012
:102CF7001083E0FBA3E0FAA3E0F9123B5990108799
:102D0700E0FE24D0901389F07BFF7A34792E90115E
:102D170027EE022DB690346DE493F9740193FA749B
:102D270002939010D8C9F0A3EAF0A3E9F0901083BA
:102D3700E0FBA3E0FAA3E0F9126FEF901081EEF049
:102D4700A3EFF0901081E0F47003A3E0F4606490C7
:102D5700346DE493FB740193FA740293F91290A60D
:102D6700901082E02FFF901081E034009010848F44
:102D7700F0120ABD9010D874FFF0A37434F0A37456
:102D87002AF0A37401F0A37410F0A37487F09010D5
:102D970083E0FBA3E0FAA3E0F9123B59901087E028
:102DA70024D0901389F07BFF7A34792E901127F085
:032DB700122E26B3
:012DBA0022F6
:0B69AA0090107CEBF0A3EAF0A3E9F0F2
:1069B50090107CE0FBA3E0FAA3E0F9AE04AF058FED
:1069C500828E83E4120A34901264E0640460030248
:1069D5006ABC9012BBE0FFC3940D4003026ABCEF92
:1069E50075F006A42470F582E43412F583A3E0FA69
:1069F500A3E04A7003026ACA90107CE0FBA3E0FAA8
:106A0500A3E0F9C0029012BBE075F006A42470F56E
:106A150082E43412F583A3E0FAA3E0F5828A83D0F9
:106A250002120D73EF24FC600B2405606F24FE60D9
:106A350003026ACAE49012BCF09012BBE004C3944E
:106A45000D503FE004F0E075F006A4246DF582E4F6
:106A55003412F583E0FBA3E0FAA3E0F9128C7890F9
:106A650012697403F0A374E8F07BFF7A33792C90F4
:106A750012BBE0901127F09012BCE0901128F002B3
:106A85002E269012697427F0A37410F09012647486
:106A950005F0901243E06414702B8007901243E0D8
:106AA500B414119012697403F0A374E8F0901264A1
:106AB5007408F02202923C90107CE0FBA3E0FAA35C
:056AC500E0F91229B701
:016ACA0022A9
:058F110090107EEFF05E
:108F1600787F7C107D017BFF7A3479707E007F0D2F
:108F26001209B690107EE02430901087F07B017A0B
:068F360010797F028C7827
:106DF60025732562643A00257500257325730025E1
:106E060073257500446F776E6C6F6164204E616DFB
:106E1600656C697374204572723A28206E6F74200F
:106E2600696E2073657474696E672029210D0A00E6
:106E3600433A002564005265764E616D656C697350
:106E46007428436E743A2564290D0A00523A0025C7
:106E5600753B004E3A0054313A0054323A005433EE
:106E66003A004964783A25642D282564293B205246
:106E76003A25753B204E3A25733B2054313A25730B
:106E86003B2054323A25733B2054333A25733B0D4D
:106E96000A00446F776E6C6F6164204E616D656C9D
:106EA600697374204F4B21202328257529230D0A49
:106EB60000446F776E6C6F6164204E616D656C691E
:106EC6007374204572723A28257523257529210D7C
:106ED6000A00969798939495909192A09FA19C9E54
:0D6EE6009D999B9AA8A9AAA6A5A7A2A4A35E
:1048A1004113110041131200C11A4212BF0000410D
:0748B10012BE004112BDFF21
:1092A800C3742B9429FF74129412CF2480CF3400F6
:1092B800FE7B017A12792B90112AE4F0A37402F054
:0392C800027C62C3
:0A000E00E490122BF0A3F00292A878
:1096F100D390122CE0946490122BE094004003125A
:03970100000E2235
:0B8AB7009010D5E0FBA3E0FAA3E0F96B
:0B8AC200901122EBF0A3EAF0A3E9F012
:108ACD007C007D50120A56E42FFFEE3401FE90110A
:108ADD0022E0FBA3E0FAA3E0F990112AE4F0A374DD
:058AED0050F0027C6264
:0B8D7100901122EBF0A3EAF0A3E9F060
:108D7C007C007D50120A56E42FFFEE3401FE901158
:108D8C0022E0FBA3E0FAA3E0F990112AE4F0A3742B
:058D9C0050F00285D338
:0B888D009010D0EBF0A3EAF0A3E9F09C
:1088980074FFA3F0A3F07D01127E039010D3EEF0D5
:1088A800A3EFF0F47002EEF4601F9010D3E0FEA383
:1088B800E0FF9010D0E0FBA3E0FAA3E0F9128D717D
:0D88C8009010D3E0FEA3E0FF227EFF7FFFB3
:0188D5002280
:0B8187009010D5EBF0A3EAF0A3E9F0A4
:1081920074FFA3F0A3F0120AE9FFAEF07D01127E94
:1081A200039010D8EEF0A3EFF0F47002EEF4601436
:1081B2009010D8E0FEA3E0FF128AB79010D8E0FE3C
:1081C200A3E0FF2290122BE0FEA3E0FFC39464EE33
:1081D20094005023128AB790122CE004F07006909B
:1081E200122BE004F01292A890122CE024FFFF90D0
:0B81F200122BE034FFFE227EFF7FFF17
:0181FD00225F
:0882E5009010D0EEF0A3EFF0C1
:1082ED0090122BE0FCA3E0FDD39FEC9E4058ED24B3
:1082FD00FFFFEC34FFFE9010D0E0B50616A3E0B5FD
:10830D00071190122CE024FFF090122BE034FFF0B7
:10831D000292A890122CE024FFF090122BE034FF73
:10832D00F01292A890122BE0FEA3E0FF7B017A10D1
:10833D0079D2128D719010D0E0FEA3E0FF7B017A0F
:06834D001079D2128AC271
:018353002207
:109761007D01127E03EFF47002EEF460031282E5D4
:0197710022D5
:0B40B3009010D0EBF0A3EAF0A3E9F0BE
:1040BE001294AB2000030241A5E4901123F090115D
:1040CE0023E0FFC39403400302432590112774FF9E
:1040DE00F0A3746DF0A374F6F0A374FFF0A374183C
:1040EE00F0A374E8F0EF04A3F07B017A1079D312F9
:1040FE002E20901123E004FF7B017A1079D3E4FD8A
:10410E0012961B9010D0E0FBA3E0FAA3E0242CF94A
:10411E00E43AFA901123E075F00CA429F9EA35F08F
:10412E00FA1290A6C0077B017A1079D3129605C3B6
:10413E0074109FD007C39FFD9010D0E0FBA3E0FA50
:10414E00A3E0242CF9E43AFA901123E075F00CA4C4
:10415E0029F9EA35F0FAE004FF12961B901123E0DC
:10416E002402FF901311E06F7024901243E0FF645D
:10417E00046004EFB405177B017A1079D31296050B
:10418E00C3740F9FFD901123E004FF12981E90112F
:10419E0023E004F00240CC9010D0E0FBA3E0FAA3A1
:1041AE00E0F9120AE9D39400E5F0940050030242BC
:1041BE00467BFF7A1879D0E4FD7F0112961B901191
:1041CE002774FFF0A3746DF0A374FDF09010D0E08F
:1041DE00FBA3E0FAA3E0F9120AE9FF90112AE5F039
:1041EE00F0A3EFF07B017A1079D3122E207BFF7AA9
:1041FE001879D0129605C374109FFFC0077B017A01
:10420E001079D31290A6C3D0E09FFD7B017A10796E
:10421E00D37F0112961B901311E0704B901243E066
:10422E00FF64046005EF6405703D7BFF7A1879D05A
:10423E00129605C3740F80287BFF7A1879D0E4FD9F
:10424E007F0112961B901311E0701C901243E0FF39
:10425E0064046004EFB4050F901312E0FFC3740AF8
:10426E009FFD7F0112981E90112774FFF0A3746EAC
:10427E00F0A37400F0A374FFF0A37418F0A374E21B
:10428E00F09010D0E0FBA3E0FAA3E02402F9E43AA8
:10429E00FA90112DEBF0A3EAF0A3E9F07B017A106E
:1042AE0079D3122E207B017A1079D3E4FD7F02128E
:1042BE00961B901311E06401705D901243E0FF6451
:1042CE00046005EF6405704F9010D0E0FBA3E0FA98
:1042DE00A3E02402F9E43AFA129605901123EFF0C6
:1042EE00E0FF9012BFE07002A3E07003FE80027E3A
:1042FE0001C3EF9E901123F0D3940C500BE0FFC33B
:10430E00740C9FFD7F02800C901123E0FFC3741C80
:07431E009FFD7F0312981EB2
:014325002275
:100026007B017A1279C17D507C00128EB9E490135F
:1000360011F0A3F09012437404F07B017A1279C197
:05004600C2000240B3FE
:10753300901311E014605124FC40030275D27003D0
:107543000275ED240560030275F2E4901311F0A3B4
:10755300F09012C1E0FFA3E090107ECF8024901042
:107563007EE0FEA3E0FFD39400EE94005003027587
:10757300F2901312E004F07C007D0A120A68901066
:107583007EEEF0A3EFF080D69012C1E0FEA3E0FF01
:1075930090107EEEF0A3EFF07B017A1079801288D1
:1075A3008DEFF47002EEF4601E9010D37401F0A31B
:1075B3007410F0A37480F0A3E4F0A37450F07B0183
:1075C3007A1279C11289B07B017A1279C380129041
:1075D3001311E075F00CA424D5F9741235F0FA7B7D
:0F75E300011290A6901312EFF022129782C21A93
:0175F2002276
:051CC80090107DEFF01B
:101CCD00640B6003021D64901311E06405706230B3
:101CDD001A137B017A1279C17D50FC128EB9E490F2
:101CED001312F0804CD39012C2E094009012C1E018
:101CFD00940040377B017A1279ED1290A6EFD394C0
:101D0D000040287B017A1279C1128187EFF47002AD
:101D1D00EEF4600512969F80031297A27B017A1252
:101D2D0079C17D507C00128EB980031297A2D21A10
:101D3D0022901311E004F0E075F00684E5F0F01246
:101D4D007533E49012BEF0A3F0A3F0901311E0648C
:101D5D00056003021EEB2290107DE0B40E1590136A
:101D6D0011E0C394045005E004F08022E4901311B7
:101D7D00F0801B90107DE0B40D1A901311E0D394F8
:101D8D00004005E014F080069013117404F01275F4
:101D9D0033021EE290107DE0640A6003021EAA90D9
:101DAD001311E014603C24FC4003021E6C7003020E
:101DBD001EA024056003021EA8901312E0D3940008
:101DCD00401DE014F09012C1E0FEA3E0FF7C007D09
:101DDD000A120A689012C1EEF0A3EFF0021EA802DB
:101DED001EB19012BFE07002A3E07059901312E083
:101DFD00FF24C3F582E43412F583E07048EFD394E9
:101E0D0000403A901312E024C3F582E43412F583B6
:101E1D00E4F0901312E014F0E0FF24C3F582E434F3
:101E2D0012F583E0D39480401C74C32FF582E43403
:101E3D0012F583E4F0901312E014F08008E490138F
:101E4D0011F0127533901312E0FF24C3F582E434C0
:101E5D0012F583E4F074C42FF582E43412802790D8
:101E6D001312E0D394004024E014F0E0FF9013111E
:101E7D00E075F00CA424D5F582E43412F583E582E7
:101E8D002FF582E43583F583E4F0800F901311E094
:101E9D00148004E4901311F0127533803890107D86
:101EAD00E0B40F03027BD790107DE06463702F9038
:101EBD001311E0B40128A3E024C3F582E43412F534
:101ECD0083E0601AD394804006901312E004F090E2
:101EDD001312E004F0E49012BEF0A3F0A3F0901002
:101EED007DE0FFC394005003022125EFD3940940F8
:101EFD0003022125901311E014605A24FC400302C3
:101F0D0020F124056003022125901312E0C39404EF
:101F1D00502F9012C1E0FEA3E0FF7C007D0A120A53
:101F2D00569012C1EEF0A3EFF090107DE0FF9012ED
:101F3D00C2E02FF09012C1E03400F0901312E004D3
:101F4D00F09012C1E07002A3E0600302212590130E
:101F5D0012F00221257B017A1279C3129605EFC387
:101F6D009414401C9012BFE07002A3E07003022194
:101F7D004590107DE0FF9012BDE06F60030221459A
:101F8D0090107DE0FF9012BDE06F6027901312E07E
:101F9D0024C3F582E43412F583E0FE6016D39480F9
:101FAD004006901312E004F0901312E004F0E49058
:101FBD0012BEF0EF700B9012BEE0901857930220F6
:101FCD00A19012BEE0FFC39403503B901312E0FEAC
:101FDD0024C3F582E43412F58374D7F090107DE0BC
:101FED0075F003A42FF582E435F0F583E58224D551
:101FFD00F582E583346EF583E493FF74C42EF58288
:10200D00E434120220AD9012BEE0FFB4032690130B
:10201D0012E0FE24C4F582E43412F583E4F090104E
:10202D007DE02430FD74C32EF582E43412F583ED8A
:10203D00F00220D9901312E0FE24C4F582E434128C
:10204D00F583E4F0EF24FCFF90107DE0FD64097052
:10205D0055EFC39402500EEF2459FF74C32EF58231
:10206D00E43412803BEFB40212901312E024C3F556
:10207D0082E43412F583742EF08051EFB405129082
:10208D001312E024C3F582E43412F583742CF0802E
:10209D003BEF2476FF901312E024C3F582E4341253
:1020AD00F583EFF08026ED1475F003A42FFEEFD32A
:1020BD00940240047F5E80027F41EE2FFF90131249
:1020CD00E024C3F582E43412F583EFF09012BEE004
:1020DD0004F0E075F00A84E5F0F0A37403F0A37446
:1020ED00E8F08034901312E0C3940B502B90107DC8
:1020FD00E02430FF901312E0FE04F0901311E07510
:10210D00F00CA424D5F582E43412F583E5822EF586
:10211D0082E43583F583EFF090107DE09012BDF0F1
:10212D007B017A1279C1901311E0D394014003D34E
:08213D008001C392001240B3BF
:012145002277
:1090CC007B017A1279C17D507C00128EB9E4901329
:1090DC0011F0A3F09012437405F07B017A1279C160
:0590EC00C2000240B3C8
:054A080090107DEFF0AD
:104A0D00640B6003024AEF901311E06402702A30C8
:104A1D001A177B017A1279C17D50FC128EB9E49080
:104A2D001312F0901311F080109012C1E0FEA3E06C
:104A3D00FF129761D21A02969F901311E004F0E0D5
:104A4D0075F00384AFF0EFF0146046147003024A62
:104A5D00E624026003024BBCE4901312F09012C1E5
:104A6D00E0FFA3E090107ECF802190107EE0FEA3AA
:104A7D00E0FFD39400EE94004065901312E004F033
:104A8D007C007D0A120A6890107EEEF0A3EFF08094
:104A9D00D99012C1E0FEA3E0FF7B017A107980125C
:104AAD00888DEFF47002EEF4601E9010D37401F057
:104ABD00A37410F0A37480F0A3E4F0A37450F07B02
:104ACD00017A1279C11289B07B017A1279C31290E1
:104ADD00A6901312EFF0024BBC129792C21A22024B
:104AED004BBC90107DE0640A6003024BC79013111C
:104AFD00E014603314607424026003024BBC901305
:104B0D0012E0D39400401DE014F09012C1E0FEA31A
:104B1D00E0FF7C007D0A120A689012C1EEF0A3EF4F
:104B2D00F0024BBC024BCEE4901311F09012C3F087
:104B3D009012C1E0FFA3E090107ECFF0A3EFF0E460
:104B4D00901312F090107EE0FEA3E0FFD39400EEE0
:104B5D009400405B901312E004F07C007D0A120A71
:104B6D006890107EEEF0A3EFF080D9E4901311F071
:104B7D009012C3F09012C1E0FFA3E090107ECFF031
:104B8D00A3EFF0E4901312F090107EE0FEA3E0FF8F
:104B9D00D39400EE94004017901312E004F07C00C3
:104BAD007D0A120A6890107EEEF0A3EFF080D9E432
:104BBD009012BEF0A3F0A3F0800A90107DE0B40F28
:104BCD0003027BD790107DE0FFC394004050EFD3DC
:104BDD009409504A901311E07044A3E0C39404501B
:104BED002F9012C1E0FEA3E0FF7C007D0A120A5651
:104BFD009012C1EEF0A3EFF090107DE0FF9012C285
:104C0D00E02FF09012C1E03400F0901312E004F0A8
:104C1D009012C1E07002A3E07004901312F07B01BA
:094C2D007A1279C1C2001240B3F1
:014C3600225B
:109631009012437406F01294AB7BFF7A1879B5E46B
:06964100FD7F0102961BF3
:1095A900EF24F6600E24FB600A2404700912000EF1
:0795B9000297B2127BD722DA
:107BD7009012437403F01294AB7BFF7A18797DE41B
:107BE700FDFF12961B7BFF7A187996E4FD7F011241
:107BF700961B7BFF7A1879A4E4FD7F0212961B7B04
:107C0700FF7A1979ABE4FD7F0312961B9011277455
:107C1700FFF0A3746DF0A374FDF090122BE0FFA3A7
:107C2700E090112ACFF0A3EFF07B017A1079D01200
:107C37002E207BFF7A1979AB129605C3740F9FFF2D
:107C4700C0077B017A1079D01290A6C3D0E09FFDC0
:0B7C57007B017A1079D07F0302961B9E
:10937700EF24FE601214601224F9601124FB600DC3
:10938700240E700C0200260290CC029631128BA19B
:0193970022B3
:10935500D390122CE09F90122BE09E40147B017A53
:1093650010797E128D717B017A10797EC2001240D0
:01937500B344
:0193760022D4
:1070E700901081EDF090107EEBF0A3EAF0A3E9F0A9
:1070F700242CF9E43AFAA3E075F00CA429F9EA354F
:10710700F0FA1290A6EFD3940050030271D19010B9
:107117007EE0FBA3E0FAA3E0242CF9E43AFAA3E02B
:1071270075F00CA429F9EA35F0FA12856F400302CD
:1071370071CF1294AB90107EE0FBA3E0FAA3E0249A
:1071470002F9E43AFA1290A6EF901127703074FF13
:10715700F0A3746EF0A37405F0A374FFF0A3741A80
:10716700F0A37475F090107EE0FBA3E0FAA3E0F9BA
:10717700120AE9FF90112DE5F0F0A3EF803174FFBB
:10718700F0A3746EF0A37400F0A374FFF0A3741A55
:10719700F0A37475F090107EE0FBA3E0FAA3E0245F
:1071A70002F9E43AFA90112DEBF0A3EAF0A3E9F023
:1071B7007B017A107982122E207B017A107982E482
:0B71C700FD7F0112961BD322C322C3E0
:0171D200229A
:100E7E009010D2EBF0A3EAF0A3E9F0901243E064F5
:100E8E000260147BFF7A6E790A122E26900CA7E070
:100E9E00700302136180F59011CFE4F0A3740FF08C
:100EAE009010D874FFF0A3746EF0A37436F0901007
:100EBE00D2E0FBA3E0FAA3E0F9126FEF90107CEE04
:100ECE00F0A3EFF0F47002EEF4603AE02402FF902B
:100EDE00107CE034009010D38FF0120ABD9010D821
:100EEE0074FFF0A3746EF0A37439F0A37401F0A331
:100EFE007410F0A3747EF09010D2E0FBA3E0FAA37E
:100F0E00E0F9123B597BFF7A6E793C90107EE0FF40
:100F1E00A3E0901127CFF0A3EFF0122E26E490104D
:100F2E007CF0A3F090107EE0FEA3E0FFC390107D56
:100F3E00E09FEE6480F890107CE06480984003029D
:100F4E00130E9010D874FFF0A3746EF0A37452F0C9
:100F5E009010D2E0FBA3E0FAA3E0F9126FEF90102D
:100F6E0080EEF0A3EFF0F47002EEF470030212F1D3
:100F7E00E02402FF901080E034009010D38FF01226
:100F8E000ABD7B017A1079827D507C00128EB99059
:100F9E0010D874FFF0A3746EF0A37455F0A374010F
:100FAE00F0A37410F0A37482F09010D2E0FBA3E0D3
:100FBE00FAA3E0F9123B599010D874FFF0A3746EA7
:100FCE00F0A37459F09010D2E0FBA3E0FAA3E0F97D
:100FDE00126FEF901080EEF0A3EFF0F47002EEF4CB
:100FEE007003021070E02402FF901080E034009035
:100FFE0010D38FF0120ABDE4901080F0A3F0901081
:10100E00D2E0FBA3E0FAA3E0F91209DC643B6040F6
:10101E00901080E0FEA3E0FFC3942AEE64809480DB
:10102E00502E9010D2A3E475F001120AD3A9F0FA53
:10103E001209DCFD74842FF58274103EF583EDF0F9
:10104E00901081E004F070B6901080E004F080AE55
:10105E00901080E0FEA3E02484F58274103EF583A8
:10106E00E4F09010D874FFF0A3746EF0A3745CF0EB
:10107E009010D2E0FBA3E0FAA3E0F9126FEF90100C
:10108E0080EEF0A3EFF0F47002EEF4700302111B89
:10109E00E02403FF901080E034009010D38FF01204
:1010AE000ABDE4901080F0A3F09010D2E0FBA3E014
:1010BE00FAA3E0F91209DC643B6040901080E0FE78
:1010CE00A3E0FFC3940CEE64809480502E9010D257
:1010DE00A3E475F001120AD3A9F0FA1209DCFD742B
:1010EE00AE2FF58274103EF583EDF0901081E00482
:1010FE00F070B6901080E004F080AE901080E0FEAC
:10110E00A3E024AEF58274103EF583E4F09010D87F
:10111E0074FFF0A3746EF0A37460F09010D2E0FB35
:10112E00A3E0FAA3E0F9126FEF901080EEF0A3EFB8
:10113E00F0F47002EEF470030211C6E02403FF9087
:10114E001080E034009010D38FF0120ABDE490109E
:10115E0080F0A3F09010D2E0FBA3E0FAA3E0F91226
:10116E0009DC643B6040901080E0FEA3E0FFC39476
:10117E000CEE64809480502E9010D2A3E475F00192
:10118E00120AD3A9F0FA1209DCFD74BA2FF5827493
:10119E00103EF583EDF0901081E004F070B69010E3
:1011AE0080E004F080AE901080E0FEA3E024BAF55B
:1011BE008274103EF583E4F09010D874FFF0A3749F
:1011CE006EF0A37464F09010D2E0FBA3E0FAA3E0FB
:1011DE00F9126FEF901080EEF0A3EFF0F47002EEC4
:1011EE00F47003021271E02403FF901080E03400CB
:1011FE009010D38FF0120ABDE4901080F0A3F090FF
:10120E0010D2E0FBA3E0FAA3E0F91209DC643B6024
:10121E0040901080E0FEA3E0FFC3940CEE64809437
:10122E0080502E9010D2A3E475F001120AD3A9F0CB
:10123E00FA1209DCFD74C62FF58274103EF583EDAB
:10124E00F0901081E004F070B6901080E004F08011
:10125E00AE901080E0FEA3E024C6F58274103EF539
:10126E0083E4F07B017A107982128187901080EEF0
:10127E00F0FCA3EFF0FD90107DE02401FE90107CB9
:10128E00E03400901127F0A3CEF0ED2401FEE43CF3
:10129E00A3F0A3CEF0901082E0FFA3E090112BCF2D
:1012AE00F0A3EFF0A37401F0A37410F0A37484F014
:1012BE00A37401F0A37410F0A374AEF0A37401F044
:1012CE00A37410F0A374BAF0A37401F0A37410F019
:1012DE00A374C6F07BFF7A6E7968122E26900CA747
:1012EE00E070FA901080E0F47003A3E0F4601190C7
:1012FE00107DE004F0700690107CE004F0020F32D6
:10130E0090107EE0FEA3E0FF90107CE0B50617A3E0
:10131E00E0B507127BFF7A6E799890122BE0FFA34F
:10132E00E0901127801F7BFF7A6E79B790107CE0DA
:10133E00FFA3E0901127CFF0A3EFF0901080E0FF15
:10134E00A3E0901129CFF0A3EFF0122E26900CA758
:03135E00E070FA42
:011361002269
:10974F00AD071FED600BE4FEEEC3946E50F20E807A
:01975F00F712
:0197600022E6
:10964700D2FB0000000000D2FA0000000000C2FBBD
:06965700000000000022EB
:10965D00C2FB0000000000D2FA0000000000D2FBA7
:06966D00000000000022D5
:0890F1001296477FA0128B6864
:1090F900E4FFD2FA000000000030FB09EFC394FA44
:0C91090050030F80F4C2FA0000000000C8
:019115002237
:10008E00D2FBC2FA0000000000D2FA00000000000D
:05009E00C2FAC2FB22C2
:10970400C2FBC2FA0000000000D2FA000000000010
:03971400C2FA2274
:108B6800E4FEC2FA0000000000EF30E703D3800102
:108B7800C392FBEF25E0FF0000000000D2FA0000DE
:108B8800000000C2FA0EEEB408D8C2FA00000000D5
:088B980000D2FB000000000008
:018BA00022B2
:108E8B00C2FA0000000000D2FB0000000000E4FE6C
:108E9B00D2FA0000000000EF25E0FFA2FBE4334F05
:0D8EAB00FFC2FA00000000000EEEB408E364
:018EB8002297
:107C6200901125EEF0A3EFF0A3EBF0A3EAF0A3E965
:107C7200F0C2F9805590112A74FFF5F0120AD3452B
:107C8200F06060901127E0FBA3E475F001120AD3C3
:107C9200A9F0FA1209DCFF128B681290F9901126F2
:107CA200E004F07006901125E004F0901126E054F3
:107CB2003F70C2D390112BE0940090112AE09400FF
:107CC20040B312965D7F6412974F1290F190112586
:107CD200E0FF128B681290F9A3E0FF128B681290FA
:0B7CE200F9809212965D7F6402974FBC
:0485D300AD07AC063E
:1085D7001290F1ECFF128B681290F9AF05128B68BD
:1085E7001290F91296477FA1128B681290F9D390D7
:1085F700112BE0940190112AE09400401FA3E0247E
:10860700FFF090112AE034FFF0128E8BEF120A224E
:10861700129704740129F9E43AFA80D2128E8BEF8B
:0E862700120A2212008E12965D90112CE0FFB6
:018635002222
:1074680054616C6B54696D653A2025750D0A00529C
:10747800696E67496E54733A202562640D0A00529A
:10748800696E674F757454733A202562640D0A005B
:10749800546F6E65456E3A202562640D0A0043619B
:1074A8006D6572614F6E3A202562640D0A0052655F
:1074B800616C7954696D653A202562640D0A00553E
:1074C8006E6C6F636B4B657920313A202562640DD1
:1074D8000A00556E6C6F636B4B657920323A202534
:1074E80062640D0A0054616C6B566F6C756D3A20BE
:1074F8002562640D0A004E616D65436F756E743ABE
:107508002025750D0A00507377436F756E743A2005
:1075180025750D0A0043617264436F756E743A20D5
:0B75280025750D0A0025750025730075
:1048B8004112430148122900000000000000004294
:1048C8001241FFFF4211CF0000411221034112445F
:1048D8000042122300004112260041122200441215
:0E48E800450000000041122504421227012C59
:10687B007B017A12793190112AE4F0A37410F0E4C1
:10688B00FFFE1285D3901231E0B45A08A3E0B46333
:10689B000330004B901231745AF0A37463F0A3E4ED
:1068AB00F0A3741EF0A37401F0A3740FF0A3740192
:1068BB00F0A3F0A3740AF0A37401F0A304F0A37483
:1068CB0004F0A3120D0C000A2C2A7B017A127931E9
:1068DB0090112AE4F0A37410F0E4FFFE127C627BAB
:1068EB00FF7A747968901233E0FFA3E0901127CF01
:1068FB00F0A3EFF0122E267BFF7A74797790123586
:10690B00E0901127F0122E267BFF7A747987901274
:10691B0036E0901127F0122E267BFF7A747998902F
:10692B001237E0901127F0122E267BFF7A7479A68E
:10693B00901238E0901127F0122E267BFF7A747993
:10694B00B6901239E0901127F0122E267BFF7A7445
:10695B0079C790123AE0901127F0122E267BFF7A1E
:10696B007479DA90123BE0901127F0122E267BFF00
:10697B007A7479ED90123CE0901127F0122E26904C
:10698B00123CE0D3940540037403F090123CE0906A
:0F699B001221F0901238E06003D2E922C2E92203
:1075F3007B017A12792990112AE4F0A37408F07FB1
:10760300807E001285D3901229E0645A7004A3E0AF
:107613006463602C901229745AF0A37463F0E4A39A
:10762300F0A3F0A3F0A3F0A3F0A3F07B017A127907
:107633002990112AF0A37408F07F807E00127C62E7
:107643007BFF7A7479FE90122BE0FFA3E090112761
:10765300CFF0A3EFF0122E267BFF7A75790E9012EE
:107663002DE0FFA3E0901127CFF0A3EFF0122E2619
:107673007BFF7A75791D90122FE0FFA3E09011270D
:10768300CFF0A3EFF0122E261296F112971702975E
:017693002ACC
:10879F00ED24FE60171460222402702D7C007D50A2
:1087AF00120A56E42FFF74013EFE801DEF7802C3BC
:1087BF0033CE33CED8F92440800A7C007D06120ACE
:1087CF005674682FFF74203EFE7B017A1079E1907A
:1087DF00112AE4F0A37402F01285D39010E1E0FEA9
:0387EF00A3E0FF05
:0187F2002264
:0B7E03009010DAEEF0A3EFF0A3EDF01A
:107E0E00E4A3F0A3F0ED24FE600C14600E240270C7
:107E1E001990122B800890122D800390122FE0FFE4
:107E2E00A3E09010DFCFF0A3EFF09010DFE0FCA303
:107E3E00E0FD9010DDE0FEA3E0FFC39DEE9C50350B
:107E4E009010DCE0FD12879F9010DAE0B5060EA3CD
:107E5E00E0B507099010DDE0FEA3E0FF22EFF4701D
:107E6E0002EEF460109010DEE004F070BD9010DDB4
:097E7E00E004F080B57EFF7FFFF7
:017E870022D8
:108F66009012437401F074FF901241F0A3F0E49064
:108F760011CFF0A3F0901222F0901267F0A3F090B8
:098F86001262F0A3F0FF0277343F
:108BA1009012437402F01294AB7BFF7A1879627DC4
:108BB100017F0112961B7BFF7A1879787D017F0373
:108BC10012961B7B027D067F0312973DE4901223D0
:088BD100F0A3F0901226F0223F
:108508001294AB7BFF7A1879D0E4FD7F0112961B99
:10851800901223E0FEA3E0FFD39400EE94004046BF
:1085280090112774FFF0A37475F0A3742DF0A3EED7
:10853800F0A3EFF07B017A10797E122E207BFF7A70
:108548001879D0129605C3740F9FFFC0077B017A74
:1085580010797E1290A6C3D0E09FFD7B017A107936
:068568007E7F0112961B4C
:01856E0022EA
:108DFF009012437407F07E00901223EEF0A3EFF071
:108E0F009012267401F0EF7001F01285087B017A41
:0F8E1F001179D17D507C00128EB97F1002799DA0
:106EF30090107DEFF024F6607C24FB6003026FA604
:106F0300901223E0FEA3E0FFD39400EE94004047E9
:106F13007B017A1179D112888DEFF47002EEF4605F
:106F230036E4901244F07B017A1179D1FD1270E7B7
:106F330050079012437413F0227B017A1179FD12EA
:106F430090A6EF70051297A280031297C29011CFFB
:106F5300E4F0A37405F0221297D27F0412799D9076
:106F630011CFE4F0A37405F0E4901223F0A3F090A2
:106F73001226F0802E901226E0D39400401FE014D6
:106F8300F0901223E0FEA3E0FF7C007D0A120A6862
:106F9300901223EEF0A3EFF01285088006128E2ED6
:106FA300128F6690107DE0FFC39400403EEFD394B0
:106FB300095038901226E0C39404502FE004F09057
:106FC3001223E0FEA3E0FF7C007D0A120A56901212
:106FD30023EEF0A3EFF090107DE0FF901224E02F5A
:0C6FE300F0901223E03400F01285082228
:067F9000901245120D00E5
:107F96001294AB901243E0B40E0D7BFF7A1979B8B8
:107FA600E4FD7F0112961B90109F74FFF0A37419D5
:107FB600F0A37496F07B017A10797E128699E4FD1F
:107FC600901226E0FCEDC39C5016ED2FFBE43EFA22
:107FD600747E2BF58274103AF583742AF00D80E0D6
:107FE600ED2FFFE43EFE747E2FF58274103EF5837E
:107FF600E4F07B017A10797EFD7F0212961B9012C7
:0D80060026E0FFC374099FFD7F0202981E53
:10945400901243740EF0901245120D0C000000009F
:0D946400E4901226F0127F967F0202799D9F
:106CF60090107DEFF024F6606724FB7003026D931D
:106D060024046003026D96E4FFFEFDFC901245E04C
:106D1600F8A3E0F9A3E0FAA3E0FBD3120C6940273D
:106D2600901226E0B4062090123DE0FCA3E0FDA3FD
:106D3600E0FEA3E0FF901245E0F8A3A3A3E0C31290
:106D46000C697003028BA11297A27F0512799D90A0
:106D56001245120D0C00000000E4901226F080305F
:106D6600901226E0D39400401FE014F0901245E004
:106D7600FCA3E0FDA3E0FEA3E0FFE47B0AFAF9F83A
:106D8600120BD7127F908008128E2E8000128F660B
:106D960090107DE0FFC394004055EFD39409504F07
:106DA600901226E0C394065046E004F0901245E0A7
:106DB600FCA3E0FDA3E0FEA3E0FFE47B0AFAF9F8FA
:106DC600120B4C901245120D00901245E0F8A3E00C
:106DD600F9A3E0FAA3E0FB90107DE0FFE4FCFDFEE2
:106DE600EB2FFFEE3AFEED39FDEC38FC127F9022D8
:1065F20090107DEFF024F5601C14601F14602214CB
:10660200605E1470030266C82405600302672512E7
:106612008F66026725129260026725129454026700
:106622002590122BE0FEA3E0FFD39400EE940050DD
:1066320003026725EF24FFFFEE34FFFEC3901242F0
:10664200E09F901241E09E500EA3E004F0706A9029
:106652001241E004F08062E4901241F0A3F080590C
:1066620090122BE0FEA3E0FFD39400EE94005003BF
:10667200026725901241E0FCA3E0FD9FEC9E5025AD
:10668200ED9400EC9400400DE024FFF0901241E004
:1066920034FFF08024EF24FFFFEE34FF901241F02C
:1066A200A3EFF0801490122CE024FFFE90122BE056
:1066B20034FF901241F0A3CEF0901241E0FEA3E02D
:1066C200FF129355805D90122BE0FCA3E0FD901227
:1066D20041E0FEA3E0FFC39DEE9C5042E4901244D1
:1066E200F07B017A1179D1128D717B017A1179D106
:1066F200E4FD1270E750089012437413F080247B7B
:10670200017A1179FD1290A6EF70051297A280030B
:106712001297C29011CFE4F0A37405F08005E4FF54
:10672200128DFF90107DE0FFD394004009EFD394C7
:07673200095003128DFF2244
:1073990090107DEFF0C39400405EE0FBD394095058
:1073A90057901226E0C39402503AE004F090122359
:1073B900E0FEA3E0FF7C007D0A120A56901223EE3C
:1073C900F0A3EFF0EBFF7E00E02FF0901223E03EF8
:1073D900F0D3A3E0940D901223E0940050030274BB
:1073E90067EE800990107DE0FF901223E4F0A3EF8F
:1073F900F09012267401F02290107DE0B40F028003
:107409000790107DE0B40A03028F6690107DE06456
:107419000B704B901223E0FEA3E0FFC39404EE949B
:1074290000400EEF940CEE94005006EF2411FF80FB
:107439002A901223E0FEA3E0FFEE7022EF14601001
:1074490014601014601024F6600F04701102918505
:0F745900027BD7027CED027D787F1D125F12222D
:1088420090107DEFF0C39400400AE0FFD3940950EA
:1088520003028F1190107DE024F3601014601A144B
:1088620060042405702412952D028F66901221E077
:10887200C394055015E004800B901221E0D39401BB
:0B8882004008E014F0E0FF127F0D2220
:105049001294AB901243E024EBB4090040030251DF
:105059009C90506875F003A4C58325F0C58373023D
:10506900508302509F0250BB0250D702512802516F
:105079004302515E0250F302517990112774FFF0F7
:10508900A37475F0A37430F0A374FFF0A3741AF03D
:10509900A3748102519290112774FFF0A37475F0E3
:1050A900A37430F0A374FFF0A3741AF0A3749402EC
:1050B900519290112774FFF0A37475F0A37430F026
:1050C900A374FFF0A3741AF0A374AD025192901166
:1050D9002774FFF0A37475F0A37430F0A374FFF084
:1050E900A3741AF0A374C002519290112774FFF0AF
:1050F900A37475F0A37430F0A374FFF0A3741AF0CD
:10510900A374DBF07B017A10797E122E2090122392
:10511900E07002A3E06004D2E98078C2E98074906B
:10512900112774FFF0A37475F0A37430F0A374FF12
:10513900F0A3741AF0A374E7804F90112774FFF05D
:10514900A37475F0A37430F0A374FFF0A3741AF07C
:10515900A374F8803490112774FFF0A37475F0A339
:105169007430F0A374FFF0A3741BF0A3740C8019BE
:1051790090112774FFF0A37475F0A37430F0A37431
:10518900FFF0A3741AF0A3745FF07B017A10797EA3
:10519900122E20901243E0FF6418600AEF641C602D
:1051A90005EF641670297B017A10797EE4FD7F0191
:1051B90012961B901223E07004A3E064017BFF7038
:1051C900067A1B792080047A1B79297D0580507B1A
:1051D900017A10797EE4FD7F0112961B901223E07B
:1051E900FEA3E0FFD39400EE940040389011277499
:1051F900FFF0A37475F0A3742DF0A3EEF0A3EFF004
:105209007B017A10797E122E207B017A10797E1229
:1052190090A6C374109FC313FD7B017A10797E7F1A
:045229000212961BBC
:01522D00225E
:105F1200901243EFF024EBB40900400302603A9080
:105F22005F2F75F003A4C58325F0C58373025F4A12
:105F3200025F68025F82025F9D025FD0025FEA0237
:105F42006004025FB702601E9012257403F0901283
:105F5200277401F0A3742CF0901233E0FFA3E090B9
:105F62001223CF0260369012257402F0901227E4B9
:105F7200F0A304F0901235E0FF901223E4026036A1
:105F82009012257402F0901227E4F0A3745AF09054
:105F92001236E0FF901223E402603690122574015B
:105FA200F0901227E4F0A304F0901237E0FF901271
:105FB20023E40260369012257401F0901227E4F077
:105FC200A304F0901238E0FF901223E4806690124E
:105FD200257402F0901227E4F0A37463F090123952
:105FE200E0FF901223E4804C9012257401F090128D
:105FF20027E4F0A37409F090123AE0FF901223E430
:1060020080329012257401F0901227E4F0A37409F3
:10601200F090123BE0FF901223E480189012257456
:1060220001F0901227E4F0A37405F090123CE0FF17
:10603200901223E4F0A3EFF0E4901226F0901223E2
:10604200E0FEA3E0FFD3EF9400EE9400400F901225
:1060520026E004F07C007D0A120A6880E890124370
:10606200E0FF64186013EF641C600EEF641A6009AD
:10607200EF641B6004EFB41D069012267401F00257
:02608200504983
:10522E0090107EECF0A3EDF0EF24EBB409004003F8
:10523E000253F990524F75F003A4C58325F0C58330
:10524E007302526A0252950252B90252DD02533B68
:10525E0002535E02538F02530C0253C190107EE034
:10526E00FFA3E0901233CFF0A3EFF0C37433943169
:10527E00FF74129412FE7B017A12793390112AE494
:10528E00F0A374020253BB90107EA3E0901235F08F
:10529E00C374359431FF74129412FE7B017A127925
:1052AE003590112AE4F0A3040253BB90107EA3E0C4
:1052BE00901236F0C374369431FF74129412FE7B42
:1052CE00017A12793690112AE4F0A3040253BB90AE
:1052DE00107EE07002A3E07003FF80027F01901247
:1052EE0037EFF0C374379431FF74129412FE7B01C2
:1052FE007A12793790112AE4F0A3040253BB90106E
:10530E007EE07002A3E07003FF80027F01901238EE
:10531E00EFF0C374389431FF74129412FE7B017A4D
:10532E0012793890112AE4F0A3040253BB90107E38
:10533E00A3E0901239F0C374399431FF74129412B1
:10534E00FE7B017A12793990112AE4F0A304805D74
:10535E0090107EE0FEA3E0FFD39400EE9400500385
:10536E000253F990123AEFF0743A9431FF7412949A
:10537E0012FE7B017A12793A90112AE4F0A304808E
:10538E002C90107EE0FEA3E0FFD39400EE9400403C
:10539E005A90123BEFF0743B9431FF74129412FE4C
:1053AE007B017A12793B90112AE4F0A304F0127C6F
:1053BE0062803890107EE0FEA3E0FFD39400EE945E
:1053CE0000402890123CEFF0743C9431FF7412941C
:1053DE0012FE7B017A12793C90112AE4F0A304F0BC
:0E53EE00127C6290123CE0901221F002969F19
:1059100090107DEFF0901226E0B46302807B90102F
:105920007DE024F5605324FC604D2405706E9012D8
:1059300043E0FF64186010EF641C600BEF641660B6
:1059400006901226E0700E901238E06004D2E980D2
:1059500002C2E98044901226E014F0901223E0FE87
:10596000A3E0FF7C007D0A120A68901223EEF0A3E8
:10597000EFF012504980258020901226E0D3940049
:105980004017901243E0FF901223E0FCA3E0FD12C9
:10599000522E9012267463F022028BA190107DE0AB
:1059A000FFC394005003025A94EFD39409400302BA
:1059B0005A94901243E0FF64186009EF641C60047D
:1059C000EFB416129012267401F090107DE0FF9053
:1059D0001223E4025A90901243E0FF641A6004EF2D
:1059E000B41B1C90107DE0FFD394005003025A9426
:1059F0009012267401F07E0090122314025A9090A7
:105A00001243E0B41D2790107DE0FFD394005003B3
:105A1000025A947E00901228E09F901227E09E4048
:105A2000739012267401F090122314806390122553
:105A3000E0FFA3E0C39F505C901223E0FEA3E0FFD1
:105A40007C007D0A120A56901227E0FCA3E0FDC3F9
:105A50009FEC9E403F901226E004F0901223EEF05F
:105A6000A3EFF090107DE0F92FFFE43EFEC3ED9F21
:105A7000EC9E4011E9FF901224E02FF0901223E0F9
:105A80003400F0800F901227E0FFA3E0901223CFA4
:085A9000F0A3EFF012504922CF
:105C1B0090107CEFF09011CFE4F0A3741EF0901273
:105C2B0043E014B41D004003025D68905C4475F0C2
:105C3B0003A4C58325F0C58373025C9B025CA6029B
:105C4B005CB1025CBC025CC7025CD2025D10025C00
:105C5B00DD025CE8025CF2025CFC025D06025D2484
:105C6B00025D1A025D2E025D38025D42025D4C023E
:105C7B005D56025D56025D60025D60025D60025D15
:105C8B0060025D60025D60025D60025D60025D60EE
:105C9B0090107CE0FF1265F2025D6890107CE0FFD3
:105CAB00127399025D6890107CE0FF129377025D8E
:105CBB006890107CE0FF121CC8025D6890107CE0BD
:105CCB00FF124A08025D6890107CE0FF1295A90252
:105CDB005D6890107CE0FF129398025D6890107CD9
:105CEB00E0FF122592807690107CE0FF12576680C1
:105CFB006C90107CE0FF1295C0806290107CE0FFEE
:105D0B001264AA805890107CE0FF126EF3804E90C4
:105D1B00107CE0FF126CF6804490107CE0FF123D8B
:105D2B00F2803A90107CE0FF1293B9803090107C97
:105D3B00E0FF1255B4802690107CE0FF1253FC80DC
:105D4B001C90107CE0FF1295D7801290107CE0FF26
:105D5B00128842800890107CE0FF125910D39011EA
:105D6B00D0E0940A9011CFE094004020901243E0D1
:105D7B00FF640E600EEF640C6009EF64076004EFC4
:0D5D8B00B401099011CFE4F0A3740AF022D6
:10849D0090107CEBF0A3EAF0A3E9F0901243E024F6
:1084AD00F1605724FE60071460502402700E901086
:1084BD007CE0FBA3E0FAA3E0F9028AF290107CE0E5
:1084CD00FBA3E0FAA3E0F9127694EFF47002EEF458
:1084DD00600E901239E0FDD200E4FF1293DA8003B2
:1084ED001296B4901243E0FF6414600EEF641360B3
:0B84FD00099011CFE4F0A37405F022F9
:10928400436865636B5073773A25750D0A00416432
:10929400645073774974656D20310D0A002575009B
:0492A4002573250009
:0E48F6004113830041138400C10DC10EC10F98
:1092CB00C3742D9429FF74129412CF2480CF3400D1
:1092DB00FE7B017A12792D90112AE4F0A37402F02F
:0392EB00027C62A0
:0A980000E490122DF0A3F00292CBC9
:10971700D390122EE0940A90122DE0940040031289
:0397270098002285
:0B8FE100901084E0FBA3E0FAA3E0F98D
:108FEC00EF7802C333CE33CED8F92440FFEE3420D1
:0D8FFC00FE90112AE4F0A37404F0027C62E0
:10947100EF7802C333CE33CED8F92440FFEE342047
:0D948100FE90112AE4F0A37404F00285D3DC
:0B88D600901398EBF0A3EAF0A3E9F088
:1088E10074FFA3F0A3F07D02127E0390139BEEF0C0
:1088F100A3EFF0F47002EEF4601F90139BE0FEA36F
:10890100E0FF901398E0FBA3E0FAA3E0F912947161
:0D89110090139BE0FEA3E0FF227EFF7FFF9E
:01891E002236
:08810F0090107EEEF0A3EFF0EA
:10811700E4A3F0A3F07BFF7A927984901127EEF025
:10812700A3EFF0122E2690122DE07002A3E070024A
:10813700C322E4901080F0A3F090122DE0FCA3E09E
:10814700FD901080E0FEA3E0FFC39DEE9C502F7BC7
:10815700017A10798212947190107EE0FEA3E0FFFD
:10816700901084E0B50607A3E0B50702D32290106C
:0F81770081E004F070C3901080E004F080BBC37F
:0181860022D6
:0B801300901084EBF0A3EAF0A3E9F06A
:10801E0074FFA3F0A3F0120AE9FFAEF07D02127E08
:10802E0003901087EEF0A3EFF0F47002EEF4601DF3
:10803E007BFF7A927992122E26901087E0FEA3E0B3
:10804E00FF128FE1901087E0FEA3E0FF2290122D29
:10805E00E0FEA3E0FFC3940AEE94005023128FE1DA
:10806E0090122EE004F0700690122DE004F01292A1
:10807E00CB90122EE024FFFF90122DE034FFFE2253
:04808E007EFF7FFFF3
:0180920022CB
:08835400901082EEF0A3EFF09F
:10835C0090122DE0FCA3E0FDD39FEC9E4058ED2441
:10836C00FFFFEC34FFFE901082E0B50616A3E0B5DB
:10837C00071190122EE024FFF090122DE034FFF044
:10838C000292CB90122EE024FFF090122DE034FFDD
:10839C00F01292CB90122DE0FEA3E0FF7B017A103D
:1083AC007984129471901082E0FEA3E0FF7B017A35
:0683BC00107984128FEC21
:0183C2002298
:08911600901080EEF0A3EFF0D1
:10911E008013EFF47002EEF46012128354901080FC
:0C912E00E0FEA3E0FF7D02127E0380E65D
:01913A002212
:0837AA007B017A137979D2004A
:0B37B200901084EBF0A3EAF0A3E9F014
:1037BD001294AB901243E0B40D0F7BFF7A1979B8D8
:1037CD00E4FDFF12961B023878901243E0640C70F2
:1037DD0003023878901084E0FBA3E0FAA3E0F9121D
:1037ED000AE9D39400E5F094007BFF7A1879DBE4C5
:1037FD00FD7F01405A12961B90112774FFF0A374A0
:10380D0092F0A374A1F0901084E0FBA3E0FAA3E082
:10381D00F9120AE9FF90112AE5F0F0A3EFF07B0110
:10382D007A107987122E207BFF7A1879DB12960594
:10383D00C374109FFFC0077B017A1079871290A681
:10384D00C3D0E09FFD7B017A1079877F0180001244
:10385D00961B901383E070137BFF7A1879DB129619
:10386D0005C3740F9FFD7F0112981E200003023ABD
:10387D00CF901084E0FBA3E0FAA3E0F990000212D0
:10388D000CA0E4FBFAF9F8C3120C69400302396C81
:10389D0090112774FFF0A37492F0A374A4F0A37495
:1038AD00FFF0A37419F0A37496F00B7A10798712B8
:1038BD002E2090137BE0FCA3E0FDA3E0FEA3E0FF30
:1038CD009010A8120D00E49010A7F0E4FFFEFDFC8F
:1038DD009010A8E0F8A3E0F9A3E0FAA3E0FBD3125F
:1038ED000C69403F7BFF7A1979961290A69010A72C
:1038FD00E02F2487F582E43410F583742AF09010BC
:10390D00A8E0FCA3E0FDA3E0FEA3E0FFE47B0AFA40
:10391D00F9F8120BD79010A8120D009010A7E00423
:10392D00F080A87BFF7A1979961290A69010A7E0E7
:10393D002F2487F582E43410F583E4F07B017A10AF
:10394D007987FD7F0212961B901243E0640D60048F
:10395D007F0180027F00901383E06F703780227BA0
:10396D00FF7A197996E4FD7F0212961B901243E0BF
:10397D00640D60047F0180027F00901383E0B50722
:10398D00137BFF7A197996129605C3740F9FFD7FED
:10399D000212981E901243E0640C7003023ACF900D
:1039AD001084E0FBA3E0FAA3E0F9900006120CA04E
:1039BD00E4FBFAF9F8C3120C694003023A9A90112C
:1039CD002774FFF0A37492F0A374A4F0A374FFF016
:1039DD00A37419F0A374A3F00B7A107987122E201B
:1039ED0090137FE0FCA3E0FDA3E0FEA3E0FF9010A9
:1039FD00A8120D00E49010A7F0E4FFFEFDFC90105E
:103A0D00A8E0F8A3E0F9A3E0FAA3E0FBD3120C6958
:103A1D00403F7BFF7A1979A31290A69010A7E02F53
:103A2D002487F582E43410F583742AF09010A8E011
:103A3D00FCA3E0FDA3E0FEA3E0FFE47B0AFAF9F8A6
:103A4D00120BD79010A8120D009010A7E004F08073
:103A5D00A87BFF7A1979A31290A69010A7E02F24C6
:103A6D0087F582E43410F583E4F07B017A107987D1
:103A7D00FD7F0312961B901243E0640D60047F02DC
:103A8D0080027F01901383E06F703780227BFF7A75
:103A9D001979A3E4FD7F0312961B901243E0640D88
:103AAD0060047F0280027F01901383E0B507137BD2
:103ABD00FF7A1979A3129605C3740F9FFD7F031228
:023ACD00981E41
:013ACF0022D4
:10913B007B017A1379797D0A7C00128EB9E4901346
:10914B0083F0A3F09012437409F07B017A137979C1
:05915B00D2000237B252
:0525920090107DEFF048
:10259700640B60030226DF901383E0640360030289
:1025A7002667300D147B017A1379797D0AFC128E28
:1025B700B9E4901384F0022667D390137AE094006D
:1025C700901379E094005003022664E4FFFEFDFCBB
:1025D70090137BE0F8A3E0F9A3E0FAA3E0FB120C69
:1025E70069607A90137FE0FCA3E0FDA3E0FEA3E01F
:1025F700FF90137BE0F8A3A3A3E0C3120C69705DFF
:10260700901379E0FFA3E0901080CFF0A3EFF09054
:10261700137BA3A3E0FFA3E0901082CFF0A3EFF01A
:102627007B017A107980128013EFF47002EEF46068
:102637000512969F80031297A27B017A1379797D01
:102647000A7C00128EB9D20D90137B120D0C00007C
:10265700000090137F120D0C00000000220297A2C9
:10266700901383E004F0E05403FFF0E4A3F0EF14C9
:10267700604914604B14605A24036003022845E440
:10268700901383F0901379E0FFA3E090107ECF8042
:102697002490107EE0FEA3E0FFD39400EE94005058
:1026A70003022845901384E004F07C007D0A120A97
:1026B7006890107EEEF0A3EFF080D690137B800336
:1026C70090137F120D0C00000000E4901384F002B9
:1026D7002845129782C20D2290107DE0640A60039C
:1026E70002283B901383E014603C14700302279583
:1026F7001470030228002403600302284590138402
:10270700E0D39400401DE014F0901379E0FEA3E0BD
:10271700FF7C007D0A120A68901379EEF0A3EFF0B0
:10272700022845022842901384E0D39400401FE01A
:1027370014F090137BE0FCA3E0FDA3E0FEA3E0FF11
:10274700E47B0AFAF9F8120BD790137B8066901393
:1027570083E014F0E4A3F0901379E0FFA3E0901076
:102767007ECF802490107EE0FEA3E0FFD39400EE9E
:1027770094005003022845901384E004F07C007D08
:102787000A120A6890107EEEF0A3EFF080D690133D
:1027970084E0D394004023E014F090137FE0FCA37F
:1027A700E0FDA3E0FEA3E0FFE47B0AFAF9F8120BD1
:1027B700D790137F120D00022845901383E014F081
:1027C700E4A3F090137BA3A3E0FFA3E090107ECFD8
:1027D700802190107EE0FEA3E0FFD39400EE9400EA
:1027E700405C901384E004F07C007D0A120A689034
:1027F700107EEEF0A3EFF080D9E4901383F0A3F0FE
